S014000077617465725F6865617465722E7372656315
S11300000C943E000C94DB000C94EF000C94320131
S11300100C945B000C945B000C945B000C945B00F0
S11300200C945B000C945B000C945B000C947501C5
S11300300C945B000C945B000C945B000C945B00D0
S11300400C945B000C945B000C945B000C945B00C0
S11300500C945B00BC03D103E603FB0310042504EA
S11300603A044F04640479049804AD04C204D70428
S1130070EC04010516052B054005550511241FBE8A
S1130080CFE5D8E0DEBFCDBF10E0A0E6B0E0E4E706
S1130090F2E102C005900D92A236B107D9F720E033
S11300A0A2E6B0E001C01D92A638B207E1F70E94B3
S11300B05D000C9438090C9400000E94FD020E941B
S11300C00F030E94B4020E9426030E944C030E9464
S11300D0C9020E94E80664E670E080E090E00E94B5
S11300E0F5060E9444070E9449030E94C6020E942A
S11300F06B0510927B0010927D0080E00E94E60266
S11301008F3F29F080E00E94E60280936000809196
S11301107B00811109C00E94C0020E941B030E943F
S1130120090310927C0023C0813009F520917600E8
S113013030E08091600090E0AC01455051094217D5
S1130140530744F00E9403030E94C00282E080939C
S11301507C000DC00596281739074CF00E9409034E
S11301600E94BA020E94150381E080937C00809172
S11301707B00813061F680917D0081110AC08091FD
S113018079000E949E0381E080937A000E947F039D
S113019009C0813039F482E080937A008091600054
S11301A00E949E0380917B008111B1CF10927A004E
S11301B00E948A03ACCF1F920F920FB60F921124A4
S11301C08F939F9390917B0081E0892780937B009C
S11301D09F918F910F900FBE0F901F9018951F92B3
S11301E00F920FB60F9211242F933F934F935F9367
S11301F06F937F938F939F93AF93BF93EF93FF93EB
S113020080917D00811104C081E080937D0019C03C
S11302108130B9F41092720010927300109274003D
S113022010927500809160008B5F809360008C3425
S113023018F08BE4809360006091600080E00E947D
S1130240CC02FF91EF91BF91AF919F918F917F91DC
S11302506F915F914F913F912F910F900FBE0F902F
S11302601F9018951F920F920FB60F9211242F937F
S11302703F934F935F936F937F938F939F93AF932A
S1130280BF93EF93FF9380917D00811104C081E0BF
S113029080937D0019C08130B9F4109272001092DD
S11302A07300109274001092750080916000855064
S11302B080936000833218F483E28093600060913D
S11302C0600080E00E94CC02FF91EF91BF91AF915A
S11302D09F918F917F916F915F914F913F912F915A
S11302E00F900FBE0F901F9018951F920F920FB68C
S11302F00F9211242F933F934F935F936F937F93A8
S11303008F939F93AF93BF93EF93FF9380916E006E
S113031090916F00A0917000B09171000196A11DA1
S1130320B11D80936E0090936F00A0937000B09302
S1130330710040916A0050916B0060916C00709163
S11303406D004F5F5F4F6F4F7F4F40936A00509334
S11303506B0060936C0070936D0040917E0050912F
S11303607F00609180007091810084179507A60733
S1130370B70709F05FC00E94290380937900209198
S1130380770030917800A901480F511D50937800EF
S11303904093770010926E0010926F0010927000DC
S11303A01092710080917D00813099F480917200E7
S11303B090917300A0917400B09175000196A11DF5
S11303C0B11D8093720090937300A0937400B09356
S11303D0750080917A00823099F480916600909142
S11303E06700A0916800B09169000196A11DB11D3C
S11303F08093660090936700A0936800B0936900AF
S113040080917C00823099F4809162009091630025
S1130410A0916400B09165000196A11DB11D809367
S1130420620090936300A0936400B0936500809190
S1130430820082BF8091660090916700A09168005D
S1130440B09169000A97A105B10551F40E94950382
S11304501092660010926700109268001092690072
S11304608091620090916300A0916400B091650056
S11304700A97A105B10551F40E942103109262006C
S113048010926300109264001092650080917E00C7
S113049090917F00A0918000B0918100880F991FF6
S11304A0AA1FBB1FAC01BD01440F551F661F771F58
S11304B0440F551F661F771F840F951FA61FB71F74
S11304C040916A0050916B0060916C0070916D00D6
S11304D084179507A607B707E1F4209177003091B8
S11304E07800ADECBCEC0E941E0996958795969514
S11304F08795969587958093760010927800109250
S1130500770010926A0010926B0010926C001092A7
S11305106D008091720090917300A0917400B0916D
S11305207500C297A105B10571F480917D008130F9
S113053051F410927D001092720010927300109288
S1130540740010927500FF91EF91BF91AF919F914C
S11305508F917F916F915F914F913F912F910F9068
S11305600FBE0F901F90189541E067E082E00E9453
S11305709E05089541E067E082E00E941706089511
S113058040E067E082E00E94170608950E94DE06BC
S113059008950E944E070895CF93DF93D82FC62F56
S11305A00E945D0780E50E948B078D2F0E94B10792
S11305B08C2F0E94B1070E94E7078FE39CE9019703
S11305C0F1F700C00000DF91CF910895CF93C82FB9
S11305D00E945D0780E50E948B078C2F0E94B10763
S11305E00E94740780E50E9498070E94C907C82FDB
S11305F00E94E7078C2FCF91089541E060E081E0ED
S11306000E949E05089541E060E081E00E94170683
S1130610089540E060E081E00E941706089541E0FB
S113062062E082E00E949E05089541E062E082E07B
S11306300E941706089540E062E082E00E941706D7
S1130640089562E082E00E94900608950E946E057B
S113065008950E948705BC017727072E000C880B9C
S1130660990B0E941F0820E030E040EA50E40E9409
S1130670830820E030E048EC52E40E94830820E044
S113068030E040E85AE30E9483080E94EE07862F78
S113069008950E94C406089541E064E080E00E9449
S11306A09E0541E065E080E00E949E0541E066E031
S11306B080E00E949E0541E067E080E00E949E0584
S11306C041E064E081E00E949E0541E065E081E054
S11306D00E949E0541E066E081E00E949E0541E0A3
S11306E067E081E00E949E0541E063E082E00E94B1
S11306F09E0541E064E082E00E949E05089541E089
S113070063E082E00E94170641E064E082E00E9418
S11307101706089540E063E082E00E94170640E077
S113072064E082E00E941706089563E082E00E947C
S1130730900664E082E00E9490060895CF932DEC29
S1130740829F212D1124E22FE695E695E6959E2FB2
S1130750990FE92FEE0FEE0FE90F8E1BC22FC695EE
S1130760C695C69590E08A30910508F0D6C0FC0184
S1130770E65DFF4F0C94180940E064E080E00E94BD
S1130780170640E065E080E00E94170640E066E05E
S113079080E00E94170640E067E080E00E941706B0
S11307A0BCC041E064E080E00E94170640E065E0E0
S11307B080E00E94170640E066E080E00E94170691
S11307C040E067E080E00E941706A7C040E064E0D4
S11307D080E00E94170641E065E080E00E94170671
S11307E040E066E080E00E94170640E067E080E0B9
S11307F00E94170692C041E064E080E00E94170660
S113080041E065E080E00E94170640E066E080E099
S11308100E94170640E067E080E00E9417067DC052
S113082040E064E080E00E94170640E065E080E07C
S11308300E94170641E066E080E00E94170640E04F
S113084067E080E00E94170668C041E064E080E051
S11308500E94170640E065E080E00E94170641E030
S113086066E080E00E94170640E067E080E00E94B6
S1130870170653C040E064E080E00E94170641E0A0
S113088065E080E00E94170641E066E080E00E9497
S1130890170640E067E080E00E9417063EC041E092
S11308A064E080E00E94170641E065E080E00E9479
S11308B0170641E066E080E00E94170640E067E02A
S11308C080E00E94170629C040E064E080E00E94B6
S11308D0170640E065E080E00E94170640E066E00D
S11308E080E00E94170641E067E080E00E9417065E
S11308F014C041E064E080E00E94170640E065E037
S113090080E00E94170640E066E080E00E9417063F
S113091041E067E080E00E9417068C2F90E08A3067
S1130920910508F0D6C0FC01EC5CFF4F0C9418094B
S113093040E064E081E00E94170640E065E081E069
S11309400E94170640E066E081E00E94170640E03E
S113095067E081E00E941706BCC041E064E081E0EA
S11309600E94170640E065E081E00E94170640E01F
S113097066E081E00E94170640E067E081E00E94A3
S11309801706A7C040E064E081E00E94170641E03A
S113099065E081E00E94170640E066E081E00E9485
S11309A0170640E067E081E00E94170692C041E02C
S11309B064E081E00E94170641E065E081E00E9466
S11309C0170640E066E081E00E94170640E067E019
S11309D081E00E9417067DC040E064E081E00E944F
S11309E0170640E065E081E00E94170641E066E0FA
S11309F081E00E94170640E067E081E00E9417064C
S1130A0068C041E064E081E00E94170640E065E0D0
S1130A1081E00E94170641E066E081E00E9417062B
S1130A2040E067E081E00E94170653C040E064E0C4
S1130A3081E00E94170641E065E081E00E9417060C
S1130A4041E066E081E00E94170640E067E081E053
S1130A500E9417063EC041E064E081E00E94170650
S1130A6041E065E081E00E94170641E066E081E034
S1130A700E94170640E067E081E00E94170629C043
S1130A8040E064E081E00E94170640E065E081E018
S1130A900E94170640E066E081E00E94170641E0EC
S1130AA067E081E00E94170614C041E064E081E041
S1130AB00E94170640E065E081E00E94170640E0CE
S1130AC066E081E00E94170641E067E081E00E9451
S1130AD01706CF9108950E94D106089587B18F77A4
S1130AE087B987B1806487B986B1846086B986B1D5
S1130AF0826086B986B1816086B986B1806886B91C
S1130B0086B1877F86B986B1806286B9089587B138
S1130B108F7E87B987B1877F87B987B18B7F87B984
S1130B2087B18D7F87B987B1816087B986B18064C9
S1130B3086B9349BFECF84B195B10895813019F103
S1130B4030F08230E1F1833009F455C00895442334
S1130B5019F0413069F008952AB381E090E002C0B1
S1130B60880F991F6A95E2F7809582238ABB0895BE
S1130B702AB381E090E002C0880F991F6A95E2F7DA
S1130B80822B8ABB0895442319F0413069F00895FB
S1130B9027B381E090E002C0880F991F6A95E2F7BD
S1130BA08095822387BB089527B381E090E002C03B
S1130BB0880F991F6A95E2F7822B87BB0895442317
S1130BC019F0413069F0089524B381E090E002C047
S1130BD0880F991F6A95E2F78095822384BB089554
S1130BE024B381E090E002C0880F991F6A95E2F770
S1130BF0822B84BB0895442319F0413069F0089591
S1130C0021B381E090E002C0880F991F6A95E2F752
S1130C108095822381BB089521B381E090E002C0D6
S1130C20880F991F6A95E2F7822B81BB0895813062
S1130C3019F130F08230E1F1833009F455C00895A0
S1130C40442319F0413069F008952BB381E090E01A
S1130C5002C0880F991F6A95E2F7809582238BBBA7
S1130C6008952BB381E090E002C0880F991F6A9524
S1130C70E2F7822B8BBB0895442319F0413069F0CD
S1130C80089528B381E090E002C0880F991F6A9507
S1130C90E2F78095822388BB089528B381E090E031
S1130CA002C0880F991F6A95E2F7822B88BB0895CA
S1130CB0442319F0413069F0089525B381E090E0B0
S1130CC002C0880F991F6A95E2F78095822385BB3D
S1130CD0089525B381E090E002C0880F991F6A95BA
S1130CE0E2F7822B85BB0895442319F0413069F063
S1130CF0089522B381E090E002C0880F991F6A959D
S1130D00E2F78095822382BB089522B381E090E0CC
S1130D1002C0880F991F6A95E2F7822B82BB08955F
S1130D20813089F028F08230C9F0833011F10895C0
S1130D302BB381E090E002C0880F991F6A95E2F717
S1130D4082278BBB089528B381E090E002C0880F0E
S1130D50991F6A95E2F7822788BB089525B381E03D
S1130D6090E002C0880F991F6A95E2F7822785BB3D
S1130D70089522B381E090E002C0880F991F6A951C
S1130D80E2F7822782BB08958FB780688FBF8BB745
S1130D9080648BBF85B78E7F85BF85B7826085BF32
S1130DA008958FB780688FBF8BB780688BBF85B776
S1130DB0846085BF85B7886085BF08958FB78068D4
S1130DC08FBF8BB780628BBF84B7806484BF089564
S1130DD083B7877F83BF83B78F7B83BF8FB78068D9
S1130DE08FBF89B7816089BF08950F931F939B01BB
S1130DF0AC01A8EEB3E00E942D098B019C0168941C
S1130E0015F836952795179507951694D1F7DC01B3
S1130E10CB01072E7EE0B695A795979587957A9591
S1130E20D1F7702D80937E0090937F00A093800073
S1130E30B0938100D901C80180959095A095B09593
S1130E409927AA27BB278093820090938300A093BD
S1130E508400B09385000023A1F082BF80917E00BE
S1130E6090917F00A0918000B09181000196A11D16
S1130E70B11D80937E0090937F00A0938000B09377
S1130E8081001F910F91089583B7816083BF83B759
S1130E908D7F83BF83B7846083BF089588E480B95E
S1130EA086B7846086BF2FEF81EE94E021508040A6
S1130EB09040E1F700C00000089586B7806286BFC5
S1130EC086B7806886BF06B607FEFDCF81B1887FEE
S1130ED08830E1F72FEF81EE94E02150804090407C
S1130EE0E1F700C00000089586B7806286BF86B728
S1130EF0806886BF06B607FEFDCF81B1887F80314A
S1130F00E1F72FEF81EE94E0215080409040E1F72B
S1130F1000C000000895880F83B986B7806886BF33
S1130F2006B607FEFDCF81B1887F8831E1F70895C9
S1130F3090E0880F991F816083B986B7806886BF67
S1130F4006B607FEFDCF81B1887F8034E1F72FEF2D
S1130F5081EE94E0215080409040E1F700C0000011
S1130F60089583B986B78F7D86BF86B7806886BFAC
S1130F7006B607FEFDCF81B1887F8832E1F72FEFF7
S1130F8081EE94E0215080409040E1F700C00000E1
S1130F90089586B78F7D86BF86B78F7E86BF86B756
S1130FA0806486BF86B7806886BF06B607FEFDCF1D
S1130FB081B1887F8035E1F72FEF81EE94E02150F5
S1130FC080409040E1F700C0000083B1089586B7E7
S1130FD0806186BF86B7806886BF08950E946208D4
S1130FE088F09F5798F0B92F9927B751B0F0E1F0E6
S1130FF0660F771F881F991F1AF0BA95C9F714C096
S1131000B13091F00E947C08B1E008950C947C0802
S1131010672F782F8827B85F39F0B93FCCF38695CE
S113102077956795B395D9F73EF49095809570952B
S113103061957F4F8F4F9F4F0895E89409C097FBA8
S11310403EF490958095709561957F4F8F4F9F4F9B
S11310509923A9F0F92F96E9BB279395F6958795DF
S113106077956795B795F111F8CFFAF4BB0F11F4A2
S113107060FF1BC06F5F7F4F8F4F9F4F16C0882349
S113108011F096E911C0772321F09EE8872F762F7F
S113109005C0662371F096E8862F70E060E02AF0C0
S11310A09A95660F771F881FDAF7880F96958795AC
S11310B097F9089557FD9058440F551F59F05F3F15
S11310C071F04795880F97FB991F61F09F3F79F066
S11310D087950895121613061406551FF2CF4695E8
S11310E0F1DF08C0161617061806991FF1CF86956A
S11310F07105610508940895E894BB27662777274E
S1131100CB0197F908950E9496080C9407090E9450
S1131110F90838F00E94000920F0952311F00C948E
S1131120F0080C94F60811240C947D080E945A08C7
S113113070F3959FC1F3950F50E0551F629FF00126
S1131140729FBB27F00DB11D639FAA27F00DB11D3F
S1131150AA1F649F6627B00DA11D661F829F2227C8
S1131160B00DA11D621F739FB00DA11D621F839F4F
S1131170A00D611D221F749F3327A00D611D231F25
S1131180849F600D211D822F762F6A2F11249F5773
S113119050409AF0F1F088234AF0EE0FFF1FBB1F76
S11311A0661F771F881F91505040A9F79E3F510535
S11311B080F00C94F0080C947D085F3FE4F3983EB3
S11311C0D4F3869577956795B795F795E7959F5FDF
S11311D0C1F7FE2B880F911D9695879597F9089571
S11311E097F99F6780E870E060E008959FEF80ECD6
S11311F0089500240A941616170618060906089579
S113120000240A9412161306140605060895092EDE
S11312100394000C11F4882352F0BB0F40F4BF2B4D
S113122011F460FF04C06F5F7F4F8F4F9F4F08958D
S1131230EE0FFF1F0590F491E02D0994A29FB001D9
S1131240B39FC001A39F700D811D1124911DB29FF6
S1131250700D811D1124911D08950E941E09A59FE2
S1131260900DB49F900DA49F800D911D112408959D
S1071270F894FFCF1C
S10512743C0038
S9030000FC
